:020000040800F2
:10000000281100203D020008214D0008592F00084A
:10001000054700085B270008736000080000000027
:100020000000000000000000000000002957000848
:10003000B12B0008000000008F5300088958000809
:10004000570200085702000857020008570200082C
:10005000570200085702000857020008570200081C
:10006000570200085702000857020008570200080C
:1000700057020008570200085702000857020008FC
:1000800057020008570200085702000857020008EC
:1000900057020008570200085702000857020008DC
:1000A00057020008570200085702000857020008CC
:1000B000570200086159000857020008570200085B
:1000C00057020008570200085702000857020008AC
:1000D00057020008DD5C0008755D00085702000843
:1000E000570200085702000857020008570200088C
:1000F000570200085702000857020008570200087C
:10010000570200085702000857020008570200086B
:10011000570200085702000857020008570200085B
:10012000570200085702000857020008570200084B
:1001300000F002F800F073F80AA090E8000C824486
:100140008344AAF10107DA4501D100F068F8AFF263
:10015000090EBAE80F0013F0010F18BFFB1A43F0A5
:10016000010318472CA100004CA100000A444FF0E5
:10017000000C10F8013B13F0070408BF10F8014B06
:100180001D1108BF10F8015B641E05D010F8016B4B
:10019000641E01F8016BF9D113F0080F1EBF10F8AF
:1001A000014BAD1C0C1B09D16D1E58BF01F801CBD2
:1001B000FAD505E014F8016B01F8016B6D1EF9D555
:1001C0009142D6D37047000000230024002500266A
:1001D000103A28BF78C1FBD8520728BF30C148BFAA
:1001E0000B607047662908F00186642900F01681CB
:1001F000732900F06085002070471FB500F028FECD
:1002000004000020002107F0F7FC401C6060002083
:10021000002107F0DBFCE0601FBD10B510BD00F051
:100220008BFF1146FFF7E9FF06F0C6FD01F034FA37
:1002300003B4FFF7F2FF03BC06F0F4F80948804767
:1002400009480047FEE7FEE7FEE7FEE7FEE7FEE7B8
:10025000FEE7FEE7FEE7FEE704480549054A064BD0
:10026000704700008D58000831010008280B00205D
:1002700028110020280D0020280D0020704753EA87
:10028000020C00F069802DE9F04B4FF00006002BC6
:100290001FBFB3FA83F503FA05F424FA05F65E40AE
:1002A00012BF1643B2FA82F502FA05F4C5F1200531
:1002B0001EBF22FA05FC44EA0C04203556EA044C21
:1002C0004FEA144418BF641C4FF000084FF00009B7
:1002D000904271EB030C39D3002919BFB1FA81F7B1
:1002E00001FA07F6B0FA80F700FA07F6C7F120071F
:1002F0001EBF20FA07FC46EA0C062037B6FBF4FCCA
:10030000A7EB0507103F07F01F0BCBF120060CFAF7
:100310000BFB2CFA06F644BFB3460026202FA4BFE1
:100320005E464FF0000B5BEA060C08BF4FF0010B76
:1003300019EB0B09ABFB027C48EB0608C01B06FB64
:1003400002CC0BFB03CC71EB0C01C1E70B46024660
:1003500041464846BDE8F08B13B54FF000004FF022
:100360000001AFF30080BDE81C4070470FB41CB51E
:10037000074B06AA7B4469460090059800F069FC8B
:100380000020694600F078FC1CBC5DF814FB0000FE
:10039000010900000FB41CB50C0007AA009001D0A1
:1003A0002044401E074B7B4469460190069800F0AC
:1003B00050FC002C03D06946002000F05DFC1CBC02
:1003C0005DF814FBD908000070B50C460546012AFB
:1003D00005D02878800600D5EA69002302E00123D1
:1003E00005E05B1C934202D2E05C0028F9D1A869C9
:1003F000E618C01AA861286A184428622846AFF394
:10040000008004E0D5E9012114F8010B9047B442C3
:10041000F8D32846AFF3008070BD00002DE9F0410D
:100420000646002410687529314616A510D0AFF392
:100430000080002802DA404213A507E031688A07ED
:1004400001D512A502E0490704D511A5012401E058
:10045000AFF3008000210A2206F1240709E0B0FB77
:10046000F2FCB0FBF2F302FB1C003030785418466B
:10047000491C0028F3D123462A463046BDE8F04106
:1004800000F079B9000000002D0000002B000000F2
:10049000200000002DE9F0474FF0000A894604468D
:1004A000C0F820A02046E1688847002876D025289B
:1004B00006D0D4E901219047206A401C2062F1E770
:1004C000E168204600258847C4F81CA0064600279E
:1004D000C4F818A02A2E09D0304605F09CFF38B386
:1004E00004EB8708303EC8F8186019E059F8041B7F
:1004F000204604EB87029161E1688847012F064698
:1005000018D1E069002820DA25F020051DE0D8F890
:10051000180000EB800006EB40003038C8F81800E7
:100520002046E1688847064605F075FF0028EED1B1
:10053000012F0AD02E2E08D12046E16888477F1C63
:100540000646022F45F02005C4DBA069002803DA27
:10055000404245F00105A061E80701D025F01005F3
:10056000B6B1A6F14100192802D8203645F400653D
:100570004A463146204625604D46FFF733FE58B1C6
:10058000012806D0ED1D25F0070000F1080989E7D4
:1005900004E005F1040985E730468AE7206ABDE8F2
:1005A000F08770B5064600F0D7F804680546304677
:1005B0000A22002100F0D6FB2C6070BD401ECAB29A
:1005C00010F8011F8A4202D00029F9D1002070479B
:1005D00030B505460B462A4613F8014B12F8010BBD
:1005E00008B1A042F8D01CB1002802D06D1CF1E780
:1005F000284630BD10B5431C02E010F8011B71B154
:100600008107FAD14FF0013202C88C1A8C4314EAE8
:10061000C211F9D0C01A0A0603D0C01E10BDC01AFC
:1006200010BD0A0401D0801E10BD0902FCD0401E7E
:1006300010BD032A40F2308010F0030C00F015804A
:1006400011F8013BBCF1020F624498BF11F801CBD5
:1006500000F8013B38BF11F8013BA2F1040298BF3A
:1006600000F801CB38BF00F8013B11F0030300F0A4
:10067000B183083AC0F0088051F8043B083A51F8B9
:1006800004CBA0E80810F5E7121D5CBF51F8043B4D
:1006900040F8043BAFF30080D20724BF11F8013BC0
:1006A00011F801CB48BF11F8012B24BF00F8013B22
:1006B00000F801CB48BF00F8012B70474FF0000253
:1006C0000429C0F0128010F0030C00F01B80CCF164
:1006D000040CBCF1020F18BF00F8012BA8BF20F8D2
:1006E000022BA1EB0C0100F00DB85FEAC17C24BF26
:1006F00000F8012B00F8012B48BF00F8012B7047D0
:100700004FF0000200B5134694469646203922BFAA
:10071000A0E80C50A0E80C50B1F12001BFF4F7AFF5
:10072000090728BFA0E80C5048BF0CC05DF804EBD7
:10073000890028BF40F8042B08BF704748BF20F845
:10074000022B11F0804F18BF00F8012B7047704743
:10075000704770477047000000487047C40A002087
:1007600010B5FFF7F9FF006810BD10B50446FFF79C
:10077000F3FF046010BD2DE9F0470D4699469246FF
:10078000044600F124080168880604D5E06921F0D8
:100790001001216000E00120A84201DD471B00E0BC
:1007A0000027A1697A1902EB0900081AA0612078D4
:1007B000C00602D42046AFF30080002608E0D4E94A
:1007C00001211AF806009047206A401C761C20621E
:1007D0004E45F4DB2078C0060AD52046AFF30080F2
:1007E00006E0D4E9012130209047206A401C2062B5
:1007F000381EA7F10107F4DC07E0D4E9012118F85D
:1008000005009047206A401C2062281EA5F10105C2
:10081000F3DC2046AFF300802078000602D50220EA
:10082000BDE8F0870120FBE770472DE9FF4F0C463C
:100830001E464FF0FF378BB0D2E90001DDF8608033
:100840000A908A46C1F30A5505B93D46002108467B
:100850004FF00000BAF1000F00F4400005DA00EBA1
:1008600080004FF4400101EA50004FEA9059B9F17D
:10087000010F00DDB9460A9850EA4A000ED044F64E
:100880001050A5F2FF3545432F14B8F1000F1ED0CC
:100890007542291E1EDDC9F100021CE0B8F1010FEE
:1008A0004FF0000001D0302103E0F24305E0215475
:1008B000401CB042FBDB30460022002121540B9942
:1008C000C1F80880C1E900200FB0BDE8F08FBD1B62
:1008D0006D1CDEE74A4600DA694206A800F0BAFB62
:1008E00006AB93E8070003AB83E8070050460A997C
:1008F00001F059F98DE80700A0F500501F3800906D
:100900000398002D0ADD42F21F014A4608440023E5
:1009100003A90390684601F005FC09E0A0F500502A
:100920004A461F38002303A90390684601F024FCBF
:100930008DE807000004000C03D04FF0FF304108A1
:1009400000E01046B8F1000F03D0002200921546D7
:100950001EE0751E05D400F07FFA303262556D1E20
:10096000F9D5B3460122084302D000227F1C04E0DF
:100970002078302801D100227F1E002A099784D0D8
:100980001DE0112D07DA00F067FA303262556D1C58
:1009900050EA0102F5D1084302D00098C8B10EE038
:1009A0000021681E05E0235C625C63542254401EF3
:1009B000491C8142F7DBAB46A81B401E0990002072
:1009C00004F80B000B98099AC0F80880C0E9002BC6
:1009D0007AE711264FF0000857E72DE9F04F8846D7
:1009E0000446D21D22F0070191B0D1E90001CDE902
:1009F0000A0105F015FC02460B98C00F01D02D200E
:100A000007E02068810701D52B2002E0202101EAC0
:100A1000C000032A099001D0072A05DB034641469E
:100A2000204600F067FA0BE12078800601D5E069E6
:100A300000E00620B8F1650F814606D0B8F1660FD8
:100A400018D0B8F1670F70D131E00020B9F1110F63
:100A5000009001DB112301E009F101030AAA01A9B9
:100A60000CA8FFF7E2FEDDE90C70002609F1010594
:100A7000834647E001204B4600904FF000470AAA0A
:100A800001A90CA8FFF7D1FEDDE90DB00C995D4678
:100A9000002610B909F101000D18B9EB050003D4C7
:100AA000C0F1FF3609F10105A5EB09002BE0B9F112
:100AB000010F01DA4FF001090020B9F1110F009088
:100AC000484601DD112300E003460AAA01A90CA84B
:100AD000FFF7ABFEDDE90C704D460026834620781B
:100AE00000070AD4AB4500DA5D4601A8012D04DDFC
:100AF000411911F8011C302907D04F4502DA17F1CE
:100B0000040F04DA012082460FE06D1EEEE7002F8D
:100B100002DCED1B3E4403E0781CA84200DD7D1C96
:100B2000B81B00F1010A4FF000472078000703D4FA
:100B3000AA4501DB4FF0FF3A0021B7F1004F0DF15C
:100B400043088DF8431024D002202B23002F01DA14
:100B50007F422D230A21021EA0F1010000DC5FB1BB
:100B600097FBF1FC97FBF1F201FB1C7C17460CF1A3
:100B7000300C08F801CDEEE7A8F1010003702188E0
:100B8000090501D5452100E06521A0F1010800F823
:100B9000011C09980FA9A1EB0807FF1D00B1012056
:100BA000411901EBEA70A1693844081A401EA0619E
:100BB0002078C00602D42046AFF30080099828B1FF
:100BC000D4E901219047206A401C20622078C006A9
:100BD00022D52046AFF300801EE0002E04DBB34593
:100BE00002DD01A8805D00E03020D4E901219047BA
:100BF000206A401C2062761CAAF101005FEA000A0C
:100C00000AD100F025F9C0680168405CD4E90121EF
:100C10009047206A401C2062281EA5F10105DCDCFB
:100C200007E0D4E9012118F8010B9047206A401C25
:100C30002062381EA7F10107F3DC2046AFF30080E5
:100C4000032011B041E6000001694A1C02610878E6
:100C5000704700B58FB0CDE90131002105910549FC
:100C60007944CDE9031011466846FFF713FC0FB035
:100C700000BD0000E5FFFFFF0A6802F8010B0A60F3
:100C80007047D1E900239A4202D2531C0B601070C6
:100C9000704710B5436913B1AFF3008001E0FFF76F
:100CA00093FB012010BD127800F124010A7000228C
:100CB0004A700122EDE711684FF0FF32E9E70000CA
:100CC0000FB4002300B589B00CA900910B99CB603B
:100CD000214B7B440693214B7B44079304236FF005
:100CE0000042CDE901321E4A7A446B460892024620
:100CF000002008F0DDF809B05DF814FB70B5064679
:100D00004FF0FF3015460C46324686B00091CDE9D3
:100D1000010169460020049004A8FFF7D1FF0246B4
:100D20000498211825B108B1084600E02046286043
:100D3000049800280DD0002A02DD0098884208D0CF
:100D40003246081B69460094CDE9010404A8FFF768
:100D5000B7FF06B070BD00009F020000B7020000A0
:100D6000F70100002DE9F04791460F468046044602
:100D7000002614F8015B2DB100F062F80068405DB8
:100D8000C007F6D12B2D02D02D2D18D0641E4A4657
:100D90003946204600F00EF927B13968A14201D149
:100DA000C7F800804FF0020471050BD540420028BF
:100DB00003DDFFF7D1FC0460A007BDE8F08746F42F
:100DC0008066E4E70028F8DAFFF7C6FC04606FF0FD
:100DD0000040F2E710B5203AC0F00B80B1E818509F
:100DE000203AA0E81850B1E81850A0E81850BFF415
:100DF000F5AF5FEA027C24BFB1E81850A0E81850B4
:100E000044BF18C918C0BDE810405FEA827C24BF07
:100E100051F8043B40F8043B08BF7047D20728BF95
:100E200031F8023B48BF11F8012B28BF20F8023BE4
:100E300048BF00F8012B704700487047C40A0020E3
:100E400010B500F005F8001D10BD00BFAD6D00002D
:100E500000487047E40A002030B5B0F10A024FEABA
:100E6000900E71F100034EEA817EB0EB0E0061EB53
:100E700091014FEA101E4EEA017E10EB0E0041EB8D
:100E800011114FEA102E4EEA016E10EB0E0041EBED
:100E900011214FEA104E4EEA014E10EB0E0041EBCD
:100EA0001141401841F100014FEAD00040EA417081
:100EB0004FEAD10110EB80054FEA810444EA9074B7
:100EC00044EB01046D1944EB0404521BA3414FF0A1
:100ED000000348BF0A3200D530BD401C41F100017B
:100EE00030BD10B50446FFF7ABFF0068005D00F0B1
:100EF000010010BD2DE9F0411F460446032601689C
:100F0000072A01F4006004DB08B116A505E016A568
:100F100003E008B115A500E015A521F01000206040
:100F2000A069C01EA0610FB1401EA0612046AFF3B2
:100F300000804FB1D4E9012138469047206A401C17
:100F40002062C01C206206E0206AFAE7D4E9012191
:100F500015F8010B9047761EF8D22046AFF30080BB
:100F6000BDE8F0814E414E006E616E00494E460074
:100F7000696E6600426842B1016811F8013B23B115
:100F8000521EC0E90012184670470121C160881E38
:100F9000704742685AB1C368016843B983688B429D
:100FA00005D0491E521CC0E90012002070474FF0C6
:100FB000FF3070472DE9F05F824615468B460027CB
:100FC0000AF10104B9460078302801D09DB113E040
:100FD00014F8010B0127782803D0582801D045B117
:100FE0000AE00DB1102D07D1002714F8010B1025D0
:100FF00002E0082500E00A250026B0460EE005FBC9
:10100000080005FB06F101271FFA80F801EB1046E6
:10101000B6F5803F00D3B94614F8010B294600F01D
:10102000B0F80028EBDABBF1000F05D00FB1641E59
:1010300000E05446CBF80040B9F1000F06D0FFF7AE
:101040008BFB02210160C81EBDE8F09F48EA064004
:10105000FAE700002DE9F047814616468AB0354888
:1010600078440DC88DE80D0032487844801C03ACEC
:101070000DC884E80D0041F69B300844372190FBF1
:10108000F1F290FBF1F5A5F1800501FB12041B3C88
:1010900002D56442012000E00020DFF898A08046DD
:1010A0000027FA44AAF1BE0A0EE0E0070AD0324651
:1010B000684607EB470101230AEB810101F05CF868
:1010C0008DE8070064107F1C002CEED1194F7F447F
:1010D000AE3F19E0E80715D007EB04100DF1180A30
:1010E00090E80E008AE80E00C068F04201D198191D
:1010F00008903246012306A903A801F03DF803AB8E
:1011000083E807006D10641C002DE3D14FF001034C
:1011100032466946B8F1000F03A802D001F002F888
:1011200001E001F029F8C9E90001C9F808200AB076
:10113000BDE8F087409000007546FFF77DFEAE46A3
:1011400005006946534620F00700854618B020B5D3
:10115000FFF782F8BDE820404FF000064FF000078F
:101160004FF000084FF0000B21F00701AC46ACE84F
:10117000C009ACE8C009ACE8C009ACE8C0098D46BC
:1011800070473A2800D2303820F02002412A01D39B
:10119000A2F13700884201D34FF0FF3070470000C2
:1011A0002DE9FF4F06468BB00878FF2806D0491C72
:1011B0002D2805D000244FF0000908E000200CE0A5
:1011C0000124F8E709EB8903491C00EB430908787F
:1011D000FF28F7D114B1C9F100008146107800252D
:1011E0002C46AA4629462D2801D02B2804D1521C72
:1011F0002D2813D0002082468B461078FF280FD070
:101200004FF0000C0A21521CA5FB017804FB018160
:1012100005FB0C11C5194BEB0104EEE70120EAE7D1
:10122000002108464FF00000BAF1000F02D000EB99
:1012300080004008C0F38157012F01DD4FF0FF37D8
:101240000E9955EA040009EB01080BD04FF0020992
:1012500018F5FA7F16DA4FEACA70002F706008DDC1
:10126000012007E04FEACA70C6E900B00FB0BDE840
:10127000F08F00203060FFF76FFAC0F8009018215F
:10128000084616E0B8F5FA7F18DD002F02DAF748B5
:10129000784401E0F6487844D0E90010C6E900102F
:1012A00040EACA707060FFF757FAC0F80090142146
:1012B00008460FB0BDE8F04F07F095BD0021084685
:1012C0004FF00000B8F10001099002DAC7F1000206
:1012D00000E03A4601DAC8F1000106A8FFF7BAFEBD
:1012E00006AB93E8070003AB83E8070044F23E0037
:1012F0005BEA04010090584604D144F21E012C46DA
:101300005D460091210C0904014306D10099240493
:1013100044EA15442D041039009104F07F41014343
:1013200006D10099240244EA15642D02083900917F
:1013300004F07041014306D10099240144EA157478
:101340002D01091F009104F04041014306D100998D
:10135000A40044EA9574AD00891E009104F0004198
:10136000084304D100986D196441401E00904FF06D
:1013700001033A466846B8F1000FCDE9014503A9DB
:1013800002DD00F00EFF01E000F0E1FEBAF1000F17
:1013900004460D4601D084F00044002108464FF079
:1013A0000000099940F2FF77484010F00C0F07D178
:1013B00024F00040284303D0C4F30A50B84212D1AD
:1013C000FFF7CAF9C0F80090C4F30A50B8420AD136
:1013D000A8487844D0E90010C6E9001004F00041A4
:1013E0000843706042E7C6E900543FE72DE9FF4F2C
:1013F0001F464FF0000A4FF0FF38454691B0D7E93D
:101400000146CDF83CA0FFF723FDC0680168405CB1
:101410001090B96912986D1C8847396A81468847CF
:101420000028F6D1B9F1FF3F0AD0002E24F4D06491
:1014300011DDB9F12B0F08D0B9F12D0F0BD102E05E
:10144000404615B013E744F48064B96912986D1CE6
:101450008847761E8146600504A901D52D2000E04D
:101460002B20002E01F1010B0DF130088DF810003A
:101470003FDDB9F1690F08D0B9F1490F05D0B9F1D5
:101480006E0F02D0B9F14E0F1CD13B4601A800955A
:1014900080E85002DDE912126FF0020007F00CFD47
:1014A000C11CCED10EE0B96912986D1C88478146E7
:1014B0001398761E44F4007405600F98401C002EAB
:1014C0000F9016DDB9F1300FEDD0B9F1780F02D0E1
:1014D000B9F1580F0DD10F9801280AD13B46CDE93B
:1014E0000054DDE91212001F029607F0E3FCC11C54
:1014F000A7D1109989453ED144F0800406E01399A4
:10150000681CAAF1010A44F400740860B9696D1CF2
:101510001298761E884730288146F0D02BE010992B
:10152000894505D1200603D4761E44F0800418E0D6
:10153000484604F070FF08B3761E0DF123018B4579
:1015400044F4007408D2A9F130000BF8010B200616
:1015500007D5AAF1010003E0200602D40AF1010038
:101560008246A00502D51399681C0860B9691298D3
:101570006D1C88478146002ED1DC53E0002E51DDE2
:10158000B9F1650F02D0B9F1450F4BD1A00549D58E
:10159000B9696D1C1298761E24F440748847002E99
:1015A00081460CDD2B2804D0B9F12D0F07D144F46E
:1015B0008074B96912986D1C8847761E8146E005D3
:1015C00001D52D2100E02B2108F8011BCDF800806A
:1015D00021E0761E0DF13901884544F400740CD2E7
:1015E000A9F1300010F0FF0088F8000002D1009946
:1015F000884509D908F1010806E0E00501D51E4833
:1016000001E042F20F708246B96912986D1C88475A
:10161000814613980560002E04DD484604F0FBFE69
:101620000028D6D1F96912988847FF2053468BF8D5
:10163000000088F8000000200A900B9004AA0CA972
:101640000AA8FFF7ADFDA00502D46FF00100F8E68F
:1016500014F0240F12D0E0071CD13868DDE90A121B
:10166000031D3B600068C0E9001213E024900000F5
:1016700016900000DA8E0000F1D8FFFF0AA9684634
:1016800004F058FEE00705D13868009A011D396062
:10169000006802602846D4E610B50446AFF3008027
:1016A0002046BDE81040FEF7C3BD00004FF0013CEE
:1016B00050F8042B51F8043B9A4221D1A2EB0C03C1
:1016C000934313EACC1317D150F8042B51F8043B81
:1016D0009A4215D1A2EB0C03934313EACC130BD11E
:1016E00050F8042B51F8043B9A4209D1A2EB0C03A9
:1016F000934313EACC13DBD04FF00000704700BFD8
:10170000D01A01BAB1FA81F101F0180122FA01F000
:10171000CB40C1F12001DBB2C0B2C01A2CFA01F3F8
:10172000D11A914311EAC311E6D170472DE9FF4F59
:101730001F464FF03C0987B04FF00042DDE914101E
:1017400001F10108DDF858A002EA405003900020A2
:1017500005908346054604460490B969461E0898DC
:101760008847AAF1010A0290BAF1000F3BDD029806
:101770002E2815D01021FFF704FD00282EDB4FF096
:10178000010B0599014317D0B9F1000F0BDB4A4655
:10179000C11700F0F5F905430C43A9F1040905E070
:1017A000012004900BE008B145F0010501200590EF
:1017B000049820B9361D02E0049800B1361FB969BB
:1017C000089808F101088847BBF1000FAAF1010A47
:1017D0000290C9D00999C1F80080C5E70298702825
:1017E00008D0502806D0F96908988847BBF1000F47
:1017F00014D04FE0002002900120BBF1000F0490B4
:1018000009D0B969089808F101088847AAF10109C7
:10181000B9F1000F07DCF969089888476FF00100FB
:101820000BB0BDE8F08F2B2804D02D280CD14FF041
:10183000FF300490B969089808F101088847A9F1B8
:101840000109B9F1000FE6DD411CE4D00A21FFF7E0
:1018500098FC0028DFDB029908F1010801EB810107
:1018600000EB41000290B969089888470A21FFF708
:1018700088FC099AA9F10109B9F1000FC2F80080AA
:1018800001DD0028E7DAF969089888470499029889
:1018900000FB016655EA040004D004F04041090051
:1018A00002D006E0039898E0A40044EA9574AD00E5
:1018B000B61E04F00041080002D16D196441761E85
:1018C000159810F0240F03D04FF00B095C4803E08B
:1018D0004FF028096FF07D008246564507DAAAEBE3
:1018E00006018944B9F1410F01DD4FF041090120A2
:1018F0000021A9F1010200F043F9024628400B46FD
:101900002140084301D0012100E00021501E029136
:1019100043F1FF3128402140084301D0012000E07D
:1019200000200299834651EA0B014FD0002108465E
:101930004FF00000039900F4400039B100EB800043
:101940004FF4400100EBD07001EA600080150128DF
:1019500002DD4FF0FF3000E013D0401C36D002987B
:1019600060B3BBF1000F0CD14A460120002100F00A
:1019700007F928402140084301D0012000E0002061
:10198000E0B101204A46002100F0FAF80346401970
:101990000A4661412D1A8C4111D3B9F1400F09DD7E
:1019A000159810F0240F02D0AAF1340603E0AAF132
:1019B000170600E0761C00254FF0004406E05B1E91
:1019C00042F1FF3220EA030521EA0204CAF10100D4
:1019D000B04206DA1B4903980843019000200090AA
:1019E0000EE0039AC4F3D321E80A0A43164940EAF9
:1019F00044500A433146CDE90002684604F000FD38
:101A0000159810F0240F0BD01598C00715D1386821
:101A1000DDE90012031D3B600068C0E900120CE024
:101A200002A8694604F086FC1598C00705D13868FD
:101A3000029A011D3960006802604046F0E600002D
:101A400002FCFFFF0000F07F0000F03F2DE9FF4F98
:101A500092461D4685B04FF00041DDE9124BDDE9AD
:101A600014727F1E01EA4B50414940F0FF4940EAA1
:101A70000108002122F020004928049102D04E28BC
:101A800028D04CE03BA0012607C88DE80700A969D3
:101A90000698641C88477F1E014606D41DF8060080
:101AA00018B121F0200181420BD0E96906988847DE
:101AB000032E34D0082E32D06FF0010009B0BDE8FB
:101AC000F08F761C032E01D0082EE0D1601CCAF8DE
:101AD0000000DCE7A9690698641C88477F1E2AD4A9
:101AE00020F02000412826D1A9690698641C884767
:101AF0007F1E20D420F020004E281CD1A969069812
:101B0000641C88477F1E48F4002849F48009CAF8FD
:101B1000004001D4282806D0E969069888475FEA82
:101B2000CB7012D022E0A9690698641C88477F1EFA
:101B300001D4002803DAE96906988847BCE7292818
:101B4000F1D1641CCAF80040E9E71BF0240F07D06C
:101B500028680499031D2B600068C0E9001805E09F
:101B60002868021D2A600068C0F800902046A5E79A
:101B70000000F07F494E46494E495459000000008C
:101B8000B2F120030AD5C2F1200301FA02F120FAD2
:101B900003F300FA02F041EA0301704700FA03F18F
:101BA0004FF0000070475FEA400C08BF91F0000F53
:101BB0004FEA8C234FEAC12243EA51514FEA1C50AD
:101BC00018BF00F5F0404FEA300018BF41F0004167
:101BD0005FEA6C5C00F02980BCF1FF3F08BF40F079
:101BE00080407047130C06BF12044FF0100C4FF0EA
:101BF000000C130E04BF12020CF1080C130F04BFEB
:101C000012010CF1040C930F04BF92000CF1020CB2
:101C1000D30F04BF52000CF1010C11464FF000022B
:101C2000A0F11F00A0EB0C00704711F0004F08BF9F
:101C3000704731F000413FF4D5AF0B0C06BF0904EB
:101C40004FF0100C4FF0000C0B0E04BF09020CF10A
:101C5000080C0B0F04BF09010CF1040C8B0F04BF1F
:101C600089000CF1020CCB0F04BF49000CF1010CF0
:101C7000CCF12003A0EB0C0022FA03F302FA0CF2E1
:101C800041EA030100F10100704720F07F4C80EA37
:101C9000030023F07F47ACEB070303F57C5300F010
:101CA000004003F1FF032DE980494FEA154B09B4C9
:101CB0004FEA144325EA0B4E24EA03480FF20426A8
:101CC00006EB132749083E785FEA320203FB0667FA
:101CD000C7F5000707FB06F64FEA54374FEAD6462A
:101CE00006F1020607FB066CCCF1005C4FEA1C47CC
:101CF0002CEA074C07FB06F40CFB06F504EB154633
:101D00004FEA961634BF00204FF000404FEAD1371B
:101D100006FB07FC4FEA1C4C0CFB0BF7D21B03FB2A
:101D20000CF761EB07010CFB0EF7B0EB074072EB11
:101D300017420CFB08F734BFA2EB0742B2EB074295
:101D400061EB17414FEA0C444FEA910706FB07FC91
:101D50004FEA1C4C0CFB0BF7B0EBC74072EB573251
:101D600003FB0CF734BFA2EBC742B2EBC74261EBF7
:101D700057310CFB0EF7B0EBC70072EB57720CFB40
:101D800008F734BFA2EBC702B2EBC70261EB577191
:101D9000039F4FEA816141EA921104EBCC044FEAC0
:101DA000D1374FEA826206FB07FC42EA90124FEA03
:101DB00080604FEA1C4C0CFB0BF7D21B03FB0CF7AB
:101DC00061EB07010CFB0EF7B0EB074072EB17421B
:101DD0000CFB08F734BFA2EB0742B2EB074261EB02
:101DE00017414FEA8C554FEA910704EB9C2406FB00
:101DF00007FC4FEA1C4C0CFB0BF7B0EBC74072EB37
:101E0000573203FB0CF734BFA2EBC742B2EBC74219
:101E100061EB57310CFB0EF7B0EBC70072EB57725A
:101E20000CFB08F734BFA2EBC702B2EBC70261EBB1
:101E3000577115EB4C254FEA816141EA92114FEA47
:101E400082624FEAD13742EA901206FB07FC44F166
:101E500000044FEA80604FEA1C4C0CFB0BF7D21BCE
:101E600003FB0CF761EB07010CFB0EF7B0EB07402F
:101E700072EB17420CFB08F734BFA2EB0742B2EB40
:101E8000074261EB174115EB1C154FEA813141EA1E
:101E900092414FEA823242EA90424FEA80304FEA62
:101EA0000C7644F1000448EA03434EEA0B484FF035
:101EB000000EB2EB080C71EB030724BF62463946F3
:101EC0004EEB0E0E4FF0000B0018524149414BEB08
:101ED0000B0BB2EB080C71EB03077BF1000B24BF7B
:101EE000624639464EEB0E0E4FF0000B0018524181
:101EF00049414BEB0B0BB2EB080C71EB03077BF189
:101F0000000B24BF624639464EEB0E0E51EA020723
:101F100018BF46F0010616EB0E7655F1000254F19B
:101F2000000103D5BDE88901BDE80088BDE889014D
:101F3000BDE80048B619524141EB0101A3F101038C
:101F4000704780807F7E7D7C7B7A79787776767526
:101F50007473727171706F6E6E6D6C6C6B6A6A699E
:101F60006868676666656464636362616160605F38
:101F70005F5E5E5D5D5C5C5B5B5A5A5959585857B1
:101F80005756565555555454535352525251515019
:101F900050504F4F4F4E4E4D4D4D4C4C4C4B4B4B6C
:101FA0004A4A4A49494948484847474747464646B2
:101FB00045454544444444434343434242424241ED
:101FC0004141000046EA0646A3F570534FEA164623
:101FD00046EA42564FEAD22242EA415210B54FEA4F
:101FE000D121A3F1010300F02FF820F0004000F10F
:101FF000020C00F0004701EB00501146BCF5006FE9
:1020000040EA070000D210BDBAF1000F0AD01CB59B
:1020100003B44FF004004FF004014FF000000FBC78
:10202000BDE810404FF00001BBF1010FB9BF0448FB
:102030004FF0FF310348002140EA070010BD00BF08
:10204000FFFFEF7F0000F07F002B9C4630D477002D
:102050002BD01CB54FEA370703B44FF010004FF0F8
:102060001001BAF1000F06D0BCF1000FDCBF40F048
:10207000080040F008014FF000000FBCBDE8104020
:102080000BF1010BBBF1010F08BF5FEA170722BF7D
:1020900012F1010211F101014FF0004143F100037F
:1020A00000F0004043EA00007047F9D35708D0E73A
:1020B00046EA064613F1400F4FEA16461FDD13F1BC
:1020C000200FDFBF16430A46002120335B42BED0FB
:1020D000C3F1200746EA064602FA07F74FEA16461A
:1020E00046EA0706C3F1200722FA03F201FA07F7CE
:1020F00021FA03F14FF0000342EA0702A7E746EA9C
:10210000020646EA06464FEA164646EA0106BCBF04
:1021100046EA0646360C4FF000034FF000024FF03F
:10212000000194E72DE9804C9A46934670B491E8FB
:10213000380007C831EA400C48BF34EA430C03D5E5
:10214000FFF7A3FDFFF780FFF0BCBDE8008C2DE991
:10215000804C9A46934670B491E8380007C831EA3B
:10216000400C48BF34EA430C03D5FFF78EFDFFF760
:1021700029FFF0BCBDE8008C2DE9804C9A469346BF
:1021800070B491E8380007C810F0804F08BF13F012
:10219000804F03D100F01AF8FFF756FFF0BCBDE8FE
:1021A000008C2DE9804C9A46934670B491E8380033
:1021B00007C810F0804F08BF13F0804F03D100F024
:1021C00005F8FFF7FFFEF0BCBDE8008C20F07F476C
:1021D00080EA030023F07F4C07EB0C03A3F57C534C
:1021E00000F00040A3F1FE0392F0000F00F0B38076
:1021F00095F0000F00F077802DE901494FEA11407A
:102200004FEA144621EA004800FB06FC24EA064790
:1022100008FB06F607FB08F800FB07F718EB064873
:102220004CEB164C4FEA124B18EB07484FEA154699
:102230004CEB174022EA0B4E0BFB06FC25EA064747
:102240000EFB06F607FB0EFE0BFB07F71EEB064E1A
:102250004CEB164C4FF000061EEB074E4CEB174BA9
:1022600018EB0B0840F1000018EB0E0B58EB0008C0
:1022700040F100008F1A4FF000013CBFC943661BBC
:1022800014BFB5EB040C00213CBFC943F61B4FEA59
:1022900017444EEA8E0E27EA04454FEA1C4704FB1A
:1022A00007622CEA074C05FB07F70CFB05F604FB5D
:1022B0000CFC16EB074642EB174216EB0C4642EBC2
:1022C0001C421BEB060658EB0202414146EA9E0601
:1022D00001D5BDE80189B619524141EB0101A3F1D5
:1022E0000103BDE801894FEA14454FEA114724EA8A
:1022F000054621EA074C05FB07F406FB07F70CFB34
:1023000006F105FB0CFC11EB074144EB17444FEAC7
:10231000124711EB0C4144EB1C4422EA074C05FB2D
:1023200007F206FB07F70CFB06F605FB0CFC16EBA9
:10233000074642EB174216EB0C4642EB1C456A1867
:1023400054F1000148BF7047B619524141EB0101F9
:10235000A3F10103704795F0000F37D04FEA114207
:102360004FEA144721EA024624EA074C02FB07F130
:1023700006FB07F70CFB06F402FB0CFC14EB07440E
:1023800041EB17414FEA154714EB0C4441EB1C415C
:1023900025EA074C02FB07F506FB07F70CFB06F6E0
:1023A00002FB0CFC16EB074645EB174516EB0C46FB
:1023B00045EB1C42121951F1000148BF7047B61994
:1023C000524141EB0101A3F1010370474FEA14456B
:1023D0004FEA114724EA054621EA074C05FB07F1BD
:1023E00006FB07F70CFB06F24FF0000605FB0CFCA2
:1023F00012EB074241EB174112EB0C4251EB1C412F
:1024000048BF7047921841EB0101A3F101037047E7
:1024100021B1826842F00102826003E0826822F00A
:1024200001028260704721B1826842F4807282604A
:1024300003E0826822F480728260704701460020C7
:102440008A6802F004020AB1012000E0002070470F
:1024500030B502460020002350680F4C20400D7913
:102460000C6844EA05242043506090680B4C2040DF
:10247000D1E902542C434D7944EA4504204390604D
:10248000D06A20F470000C7C641EE4B2234340EA5E
:102490000350D06230BD0000FFFEF0FFFDF7F1FFFA
:1024A000F0B504460D4600200021092D11DDE0683D
:1024B000A5F10A0606EB4607072606FA07F1884348
:1024C000A5F10A0606EB460603FA06F10843E060AA
:1024D0000CE0206905EB4507072606FA07F188435B
:1024E00005EB450603FA06F108432061072A0FDAD7
:1024F000606B561E06EB86071F2606FA07F1884317
:10250000561E06EB860605FA06F10843606322E0D4
:102510000D2A0FDA206BD61F06EB86071F2606FA58
:1025200007F18843D61F06EB860605FA06F1084335
:10253000206310E0E06AA2F10D0606EB86071F2675
:1025400006FA07F18843A2F10D0606EB860605FAA6
:1025500006F10843E062F0BD21B1826842F4A002B6
:10256000826003E0826822F4A00282607047816882
:1025700041F004018160704708B50121042002F098
:1025800067FF3020ADF8000000208DF80300694699
:10259000014800F01BFC08BD0008014010B5FFF722
:1025A000EBFF00F001F810BD00B591B00121480229
:1025B00002F04EFF0121084602F01AFF314800F0F8
:1025C000EBF831480690314807900020089002202F
:1025D000099000200A9080200B9040000C90800011
:1025E0000D9020200E9000020F900020109006A960
:1025F000244800F077F90121224800F0C1F80020BA
:10260000019001208DF808008DF809004FF460203A
:1026100003900020049002208DF8140001A91A48AC
:102620004C38FFF715FF4FF4004002F0D5FE0523AC
:102630000122042114484C38FFF732FF05230222FF
:10264000194611484C38FFF72BFF01210E484C3832
:10265000FFF7E9FE01210C484C38FFF7D9FE0A4884
:102660004C38FFF784FF00BF07484C38FFF7E6FE01
:102670000028F9D1012104484C38FFF76DFF11B053
:1026800000BD0000080002404C2401406A00002008
:1026900008B50121042002F0DBFE0220ADF80000A5
:1026A00003208DF8020010208DF8030069460448CD
:1026B00000F08CFB0221024800F01CFC08BD000069
:1026C00000080140002006490870064806490860D5
:1026D00000200649086006490860064908607047FE
:1026E000B80000200000A041BC000020C000002075
:1026F000C4000020C800002070B506460C461546F0
:1027000000F070FDAE2000F03FFD00F0B3FD18B109
:1027100000F08CFD012070BD304600F035FD00F06A
:10272000A9FD00F05FFDAF2000F02EFD00F0A2FD3E
:102730000DE0012D04D1002000F0F0FC207003E03A
:10274000012000F0EBFC2070681EC5B2641C002D57
:10275000EFD100F06BFD0020DDE7704710B5C82118
:102760000348FDF7ABFF00200249088010BD0000C0
:102770001B020020960000200860002313607047B1
:1027800021B1026842F00102026004E002684FF6E3
:10279000FE731A400260704701684FF6FE721140E6
:1027A00001600021016041608160C1604B49884245
:1027B00008D14A490839496841F00F01474A083AA7
:1027C00051608AE045491431884208D143490839AB
:1027D000496841F0F001414A083A51607DE03F49C3
:1027E0002831884208D13D490839496841F470616F
:1027F0003A4A083A516070E038493C31884208D181
:1028000036490839496841F47041344A083A516000
:1028100063E032495031884208D13049083949686B
:1028200041F470212D4A083A516056E02B49643139
:10283000884208D129490839496841F47001274A7A
:10284000083A516049E025497831884208D1234946
:102850000839496841F07061204A083A51603CE00B
:102860001F49884206D1011F096841F00F01021F6C
:10287000116032E01A491431884208D11849091F01
:10288000096841F0F001164A121F116025E0144951
:102890002831884208D11249091F096841F4706142
:1028A0000F4A121F116018E00D493C31884208D1CF
:1028B0000B49091F096841F47041094A121F116050
:1028C0000BE007495031884207D10549091F0968C3
:1028D00041F47021024A121F116070470800024043
:1028E0000804024010B50022026847F6F0739A43CC
:1028F0000C6A8B6823430C6923434C6923438C691E
:102900002343CC6923434C6A23438C6A23431A43F1
:102910000260CB6843600B6883604B68C36010BD86
:1029200010B500241548006820F470401349086071
:102930000846006840F40040086004E0601CC4B22F
:10294000012000F0B9F90E48006808B1C82CF5DB89
:10295000C82C01DB012010BD002404E0601CC4B2BF
:10296000012000F0A9F90648006808B9F02CF5DB51
:10297000F02C01DB0120EEE70020ECE7040C014025
:102980002C8121422DE9F84F00F0CCF800F0A8F896
:10299000FFF7C6FFCC2000F0D1F8BE2000F0CEF843
:1029A00000F08CF8834600F089F80446072C08DD17
:1029B000E043C4B26FEA0B0000F0FF0B4FF0000AD7
:1029C00001E04FF0010AA1464FEA09200FFA80F911
:1029D00009EB0B000FFA80F9484606F031F8009039
:1029E00005F062FE07460022084B05F033FC054661
:1029F00005F09AFB0FFA80F9BAF1000F02D04846B1
:102A0000BDE8F88FC9F1000000B2F9E70000E43F2B
:102A100008B50121082002F01BFD4FF40060ADF85D
:102A2000000010208DF8030003208DF80200694695
:102A3000064800F0CBF94FF40061044800F05CFA5E
:102A400000F04EF8FFF76CFF08BD0000000C0140DD
:102A500010B51748006820F4704015490860084612
:102A6000006840F4405008600020124908600220CD
:102A700000F022F901201049C1F8AC010C480068AF
:102A800020F470400A4908600846006840F400409D
:102A900008600C2000F010F906488038006808B182
:102AA000012400E00024322000F006F9204610BD89
:102AB000040C0140AC8121420080214270B5002607
:102AC000012508E0FFF7C4FF0446E00140EA660084
:102AD000C6B2681CC5B2082DF4DD304670BD0000DA
:102AE00010B50D48006820F470400B490860084696
:102AF000006840F44050086000200849086040F237
:102B0000EE2000F0D9F801200549C1F8AC010F20F2
:102B100000F0D2F810BD0000040C0140AC8121424D
:102B20000080214210B5FFF7DBFFFFF7F9FECC2054
:102B300000F004F8442000F001F810BD70B5044620
:102B40001848006820F4704016490860084600687C
:102B500040F440500860012520E004F001066410B4
:102B60006EB1002010490860022000F0A5F8012095
:102B70000E49C1F8AC013C2000F09EF80CE00020AA
:102B8000094908603C2000F097F801200749C1F886
:102B9000AC01022000F090F8681CC5B2082DDCDD05
:102BA00070BD0000040C0140AC8121420080214234
:102BB000704710B56FF0040002F052FE10BD000027
:102BC00010B50146B1F5E16F22D201EBC1034FF41C
:102BD0007A7463434FF0E02463610023A3612346CA
:102BE0001B6943F00103236100BF4FF0E023186924
:102BF00000F001031BB100F48033002BF5D04FF03F
:102C0000E0231B6923F001034FF0E02423614FE030
:102C100000221FE0274B4FF0E02463610023A361F3
:102C200023461B6943F00103236100BF4FF0E023FB
:102C3000186900F001031BB100F48033002BF5D0BC
:102C40004FF0E0231B6923F001034FF0E0242361E0
:102C5000531CDAB24FF4E163B1FBF3F39342D9D8DA
:102C60004FF4E163B1FBF3F403FB141303EBC30371
:102C70004FF47A7463434FF0E02463610023A3614F
:102C800023461B6943F00103236100BF4FF0E0239B
:102C9000186900F001031BB100F48033002BF5D05C
:102CA0004FF0E0231B6923F001034FF0E024236180
:102CB00010BD00004031F700014601EBC1024FF0AA
:102CC000E0235A6100229A611A46126942F0010219
:102CD0001A6100BF4FF0E022106900F001021AB142
:102CE00000F48032002AF5D04FF0E022126922F081
:102CF00001024FF0E0231A617047000000BF054950
:102D0000098801F040010029F9D00249091D088015
:102D1000704700000038014070B506460D4603209C
:102D2000FFF7ECFFFC20FFF7E9FF304605F04CFE13
:102D300004B2E0B2FFF7E2FFC4F30720FFF7DEFFC3
:102D4000284605F041FE04B2E0B2FFF7D7FFC4F316
:102D50000720FFF7D3FFFC20FFF7D0FF0320FFF78A
:102D6000CDFF70BD2DE9F14F13484068124908604E
:102D7000086805F099FC0646104A114B05F06AFAFE
:102D800004460D46009805F08FFC06460D4A0E4B92
:102D900005F060FA804622462B4604F075FF824615
:102DA00004F040FF044948600A465168106805F085
:102DB000A7FCBDE8F88F0000CC0000205CDDC1500E
:102DC000084EE03F48457C5EEF63CF3F2DE9F04180
:102DD000024600250026002000230024002791F849
:102DE00003C00CF00F0591F803C00CF0100CBCF1FF
:102DF000000F03D091F802C04CEA050591F800C01D
:102E0000BCF1000F31D0146800202BE04FF0010C12
:102E10000CFA00F3B1F800C00CEA03069E4220D180
:102E200083004FF00F0C0CFA03F7BC4305FA03FCC8
:102E30004CEA040491F803C0BCF1280F06D14FF00E
:102E4000010C0CFA00FCC2F814C00AE091F803C0AF
:102E5000BCF1480F05D14FF0010C0CFA00FCC2F890
:102E600010C0401C0828D1D31460B1F800C0BCF1D8
:102E7000FF0F34DD546800202EE000F1080C4FF005
:102E8000010808FA0CF3B1F800C00CEA03069E42F0
:102E900021D183004FF00F0C0CFA03F7BC4305FA65
:102EA00003FC4CEA040491F803C0BCF1280F05D1DF
:102EB00000F1080C08FA0CF8C2F8148091F803C06D
:102EC000BCF1480F07D100F1080C4FF0010808FAD7
:102ED0000CF8C2F81080401C0828CED35460BDE81E
:102EE000F0810246002093680B400BB1012000E006
:102EF0000020704741617047016170470AB101616C
:102F000000E041617047000008B50121082002F08F
:102F10009FFA10208DF803000120ADF80000032077
:102F20008DF8020069460B48FFF750FF28208DF806
:102F300003000220ADF8000069460648FFF746FF8F
:102F4000002201210348FFF7D9FF0F20FFF7B4FE4D
:102F500008BD0000000C0140704710B54FF416503A
:102F600004F0DEFD4FF4E13004F088FD03F0F0FBE7
:102F700003F018F9FFF78CFB01F002FB02F0B6FC3E
:102F800000F0B2F9FFF7C0FF00F082F8FFF740FD54
:102F900001F066FBFFF702FB01F07EFF002001F06D
:102FA0001BFF002001F026FF10BD000010B580219E
:102FB0000A48FFF7A1FF40210848FFF79DFF00F0F6
:102FC0008BF980210548FFF795FF00F085F9402136
:102FD0000248FFF78FFF00F07FF910BD000C0140A1
:102FE00010B580210648FFF785FF40210448FFF710
:102FF00083FF00F071F980210148FFF77DFF10BDCC
:10300000000C014010B580210848FFF775FF00F063
:1030100063F940210548FFF76FFF00F05DF940219B
:103020000248FFF767FF00F057F910BD000C0140A0
:1030300000B500200E4908600E48006820F0F0003E
:103040000C4908600846006840F0700008600020E5
:103050000949C1F8A40100F011F8012004490860F1
:1030600000F00CF800200449C1F8A00100BD0000E8
:10307000A0812142040C0140008021425A2000E03E
:1030800000BF011EA0F10102D0B2F9D170470000CB
:1030900008B50121082002F0DBF94FF44070ADF8CB
:1030A000000010208DF8030003208DF8020069460F
:1030B0000448FFF78BFE0120034908600349C1F86B
:1030C000A40108BD000C0140A081214200802142E2
:1030D00000B500200E4908600E48006820F0F0009E
:1030E0000C4908600846006840F070000860012044
:1030F0000949C1F8A401FFF7C1FF01200449086094
:10310000FFF7BCFF00200449C1F8A00100BD00008A
:10311000A0812142040C01400080214230B50446C8
:1031200000231648006820F0F000144908600846A3
:10313000006840F040000860002514E000201049BD
:103140000860FFF79BFF01200E49C1F8A001580657
:10315000030E0B487C38006808B1581CC3B2FFF757
:103160008DFF681CC5B2082DE8DB14B9FFF7B0FF6E
:1031700001E0FFF75DFF184630BD0000040C014080
:10318000A08121420080214210B503461248006808
:1031900020F0F000104908600846006840F0700018
:1031A000086000200D490860002412E0D8090B498E
:1031B000091D08605806030E01200949C1F8A00145
:1031C000FFF75CFF002005490860FFF757FF601C10
:1031D000C4B2082CEADB10BD040C0140A0812142DE
:1031E0000080214200B50E48006820F0F0000C4934
:1031F00008600846006840F0700008600120094936
:1032000008600949C1F8A001FFF738FF002005490F
:103210000860FFF733FF00200349C1F8A00100BD9B
:10322000040C0140A48121420080214200B50E48D7
:10323000006820F0F0000C4908600846006840F083
:10324000700008600020094908600949C1F8A4011C
:10325000FFF714FF0120054908600549C1F8A401E2
:10326000FFF70CFF00BD0000040C0140A0812142CB
:103270000080214200B500231448006820F0F000CF
:10328000124908600846006840F0400008600120CC
:103290000F490860FFF7F2FE01200E49C1F8A001B6
:1032A000FFF7ECFE07E0581CC3B2FA2B03DDFFF773
:1032B000BDFF012000BD0648803800680028F2D11B
:1032C0000349091F086000BFF4E70000040C014037
:1032D000A481214200802142032000BF011EA0F1F1
:1032E0000102D0B2FAD1704708B50121142002F0D2
:1032F000AFF80120ADF8000048208DF8030003204E
:103300008DF8020069460948FFF760FD4FF4604000
:10331000ADF8000048208DF8030003208DF802006E
:1033200069460348FFF752FD08BD00000008014050
:103330000010014010B5002402F03CF92F494880EC
:103340002F48007830B1012813D0022825D0032857
:103350004FD141E02948408838B101202849087000
:10336000264840882549888002E000202349C880FB
:1033700040E002F01FF921494880084640888988CA
:10338000884206D102201E49087000201B49C880CF
:1033900002E000201A4908702CE002F00BF91749EE
:1033A0004880084640888988884205D00020144912
:1033B0000870124884880EE01048C088B0F5FA6F93
:1033C00009DB03200E4908700C48808840F48054C3
:1033D00000200A49C8800DE002F0ECF80749488057
:1033E000084640888988884202D000200449087035
:1033F00000E000BF00BF204610BD000056010020C5
:103400004200002010B50024054800890A2805DD87
:10341000FFF790FF0446002001490881204610BDB7
:10342000560100201FB5FFF7EDFFFE494881084611
:1034300040898989884201F09A80FA484089F9498F
:10344000888108464089012878D0022877D004284E
:1034500076D0082841F08980F3480079012835D1D9
:10346000F248007898BBF2480078401CF049087098
:1034700008460078392801DD3020087001200090CE
:10348000EB48807A0390EB4800784006000E0290EB
:10349000E948007800EB40004006000E1023019040
:1034A000DDE9021201F0C8FD00200090E04800783C
:1034B0000390E04800784006000E0290DE48007855
:1034C00010230190DDE9021201F0B6FD53E2FFE79F
:1034D000D6480078012834D1D5484078401CD449DA
:1034E000487008464078392801DD302048700120B6
:1034F0000090CF4800780390CE4800784006000E38
:103500000290CD48007810230190DDE9021201F00D
:1035100093FD00200090C64840780390C54800788D
:103520004006000E0290C44800780830C0B2102354
:103530000190DDE9021201F07FFD1CE2FEE31BE2D7
:1035400027E3BA480078022833D1B9488078401C74
:10355000B749887008468078392801DD30208870A6
:1035600001200090B24840780390B24800784006AD
:10357000000E0290B04800780830C0B210230190CD
:10358000DDE9021201F058FD00200090A848807883
:103590000390A84800784006000E0290A6480078E4
:1035A0004006000E10230190DDE9021201F044FDF7
:1035B000E1E19E480078032835D19D48C078401C41
:1035C0009B49C8700846C078392801DD3020C87092
:1035D0000120009096488078039096480078400635
:1035E000000E0290944800784006000E10230190CF
:1035F000DDE9021201F020FD002000908C48C07827
:1036000003908C4800784006000E02908A480078AB
:10361000082101EB4000C0B210230190DDE9021245
:1036200001F00AFDA7E181480078042836D18048DE
:103630000079401C7E49087108460079392801DD6F
:1036400030200871012000907948C07803907948B3
:1036500000784006000E029077480078082101EBC0
:103660004000C0B210230190DDE9021201F0E4FC39
:10367000002000906E48007903906E480078400664
:10368000000E02906C48007800EB4000C0B210239E
:103690000190DDE9021201F0CFFC6CE16348007893
:1036A000052836D162484079401C61494871084676
:1036B0004079392801DD30204871012000905C48B4
:1036C000007903905B4800784006000E02905A484B
:1036D000007800EB4000C0B210230190DDE9021237
:1036E00001F0AAFC00200090514840790390514815
:1036F00000784006000E02904F48007800EB400032
:103700000830C0B210230190DDE9021201F094FCF0
:1037100031E146480078062835D145488079401C7B
:103720004349887108468079392801DD3020887145
:10373000012000903E48407903903E4800784006C2
:10374000000E02903C48007800EB40000830C0B208
:1037500010230190DDE9021201F06EFC00200090C0
:10376000334880790390334800784006000E029079
:10377000314800788006000E10230190DDE9021226
:1037800001F05AFCF7E029480078072835D128488D
:10379000C079401C2649C8710846C079392801DD26
:1037A0003020C87101200090214880790390214881
:1037B00000784006000E02901F4800788006000E38
:1037C00010230190DDE9021201F036FC0020009088
:1037D0001748C0790390174800784006000E029001
:1037E00015480078082101EB8000C0B21023019039
:1037F000DDE9021201F020FCBDE00C480078082849
:1038000043D10B48007A401C094908720846007AE7
:10381000392801DD30200872012000900448C07969
:1038200003900BE0560100204C0100204F000020C7
:10383000430000200D0000200C000020FE4800780E
:103840004006000E0290FD480078082101EB800040
:10385000C0B210230190DDE9021201F0EDFB00205F
:103860000090F748007A0390F34800784006000E75
:103870000290F248007800EB8000C0B21023019063
:10388000DDE9021201F0D8FB75E0EE480078092866
:1038900036D1EB48407A401CE94948720846407AE4
:1038A000392801DD3020487201200090E448007A78
:1038B0000390E14800784006000E0290DF4800784F
:1038C00000EB8000C0B210230190DDE9021201F08C
:1038D000B3FB00200090DA48407A0390D648007885
:1038E0004006000E0290D548007800EB80000830BA
:1038F000C0B210230190DDE9021201F09DFB3AE015
:10390000D04800780A2836D1CD48807A401CCC496E
:1039100088720846807A392801DD302088720120BB
:103920000090C748407A0390C34800784006000ED4
:103930000290C248007800EB80000830C0B210232B
:103940000190DDE9021201F077FB00200090BC48F5
:10395000807A0390B84800784006000E0290B7487D
:10396000007800EB40004006000E10230190DDE9D6
:10397000021201F061FBBAE301F016FAB2480079D5
:10398000401CB14908710846007901287DD100200A
:10399000009003901023ADA20146029001F0B2FC0A
:1039A0000020A84908700090A5480978405C039061
:1039B000A14800784006000E0290A048007810232D
:1039C0000190DDE9021201F037FB012000909C48D4
:1039D00040780390984800784006000E029097487F
:1039E00000780830C0B210230190DDE9021201F026
:1039F00023FB012000909248807803908E48007845
:103A00004006000E02908D4800784006000E1023FC
:103A10000190DDE9021201F00FFB012000908848BF
:103A2000C0780390844800784006000E02908348D6
:103A30000078082101EB4000C0B210230190DDE9BD
:103A4000021201F0F9FA012000907D4800790390FC
:103A5000794800784006000E02907848007800EB24
:103A60004000C0B210230190DDE9021201F0E4FA37
:103A7000012000907248407903906F48007840061A
:103A8000000E02906D48007800E075E000EB400009
:103A90000830C0B210230190DDE9021201F0CCFA27
:103AA00001200090664880790390634800784006C2
:103AB000000E0290614800788006000E10230190ED
:103AC000DDE9021201F0B8FA012000905C48C079EB
:103AD0000390594800784006000E0290574800783D
:103AE000082101EB8000C0B210230190DDE9021231
:103AF00001F0A2FA012000905148007A03904E484C
:103B000000784006000E02904C48007800EB8000E0
:103B1000C0B210230190DDE9021201F08DFA0120FC
:103B200000904748407A0390434800784006000ED2
:103B300002904248007800EB80000830C0B21023A9
:103B40000190DDE9021201F077FA012000903C4873
:103B5000807A0390384800784006000E029037487B
:103B6000007800EB40004006000E10230190DDE9D4
:103B7000021201F061FA0BE033480079022807D104
:103B80002F4A36A13648FCF7F1FB00202E49087178
:103B9000F1E62D48007901287ED12A48007898BBAB
:103BA00027480078401E26490870084600783028CB
:103BB00001DA39200870012000902148807A0390B2
:103BC0001D4800784006000E02901C48007800EB6B
:103BD00040004006000E10230190DDE9021201F0C2
:103BE0002BFA0020009016480078039012480078C5
:103BF0004006000E02901148007810230190DDE984
:103C0000021201F019FA72E2FFE70E48007801286B
:103C10004AD10B484078401E094948700846407810
:103C2000302801DA392048700120009004480078DB
:103C300003900148007815E00D0000200C000020E2
:103C4000430000204F0000204C01002053657420E9
:103C500050686F6E654E756D3A0000002573000068
:103C6000370000204006000E0290F948007810232B
:103C70000190DDE9021201F0DFF900200090F54823
:103C800040780390F44800784006000E0290F04817
:103C900000780830C0B200E01EE210230190DDE998
:103CA000021201F0C9F922E2EC480078022833D16F
:103CB000E8488078401EE7498870084680783028B8
:103CC00001DA3920887001200090E24840780390A2
:103CD000E14800784006000E0290DD480078083088
:103CE000C0B210230190DDE9021201F0A5F9002015
:103CF0000090D84880780390D74800784006000E9E
:103D00000290D34800784006000E10230190DDE9B0
:103D1000021201F091F9EAE1D0480078032837D186
:103D2000CC48C078401ECB49C8700846C0783028BF
:103D300001DA3920C8700120009000E0D8E1C548C0
:103D400080780390C44800784006000E0290C04876
:103D500000784006000E10230190DDE9021201F008
:103D60006BF900200090BB48C0780390BA480078F7
:103D70004006000E0290B6480078082101EB400092
:103D8000C0B210230190DDE9021201F055F9AEE155
:103D9000B2480078042836D1AE480079401EAD49BB
:103DA000087108460079302801DA392008710120AD
:103DB0000090A848C0780390A74800784006000EFD
:103DC0000290A3480078082101EB4000C0B2102304
:103DD0000190DDE9021201F02FF9002000909D48CA
:103DE000007903909C4800784006000E02909848A5
:103DF000007800EB4000C0B210230190DDE9021210
:103E000001F01AF973E195480078052836D19148F8
:103E10004079401E8F49487108464079302801DAC0
:103E200039204871012000908A48007903908A481F
:103E300000784006000E02908548007800EB4000B4
:103E4000C0B210230190DDE9021201F0F5F8002064
:103E500000908048407903907F4800784006000E2B
:103E600002907B48007800EB40000830C0B210237D
:103E70000190DDE9021201F0DFF838E177480078BF
:103E8000062835D173488079401E724988710846EA
:103E90008079302801DA39208871012000906D483E
:103EA000407903906C4800784006000E0290684804
:103EB000007800EB40000830C0B210230190DDE92B
:103EC000021201F0B9F80020009062488079039056
:103ED000614800784006000E02905D480078800638
:103EE000000E10230190DDE9021201F0A5F8FEE0BA
:103EF0005A480078072835D15648C079401E5549A0
:103F0000C8710846C079302801DA3920C87101200B
:103F100000905048807903904F4800784006000E8A
:103F200002904B4800788006000E10230190DDE9D6
:103F3000021201F081F8002000904648C0790390F9
:103F4000454800784006000E02904148007808215C
:103F500001EB8000C0B210230190DDE9021201F0F4
:103F60006BF8C4E03D480078082836D13948007A1B
:103F7000401E384908720846007A302801DA392094
:103F80000872012000903348C079039032480078CD
:103F90004006000E02902E480078082101EB8000B8
:103FA000C0B210230190DDE9021201F045F80020B3
:103FB00000902848007A0390274800784006000EB9
:103FC00002902348007800EB8000C0B210230190DB
:103FD000DDE9021201F030F889E020480078092874
:103FE0003ED11C48407A401E1A4948720846407A21
:103FF000302801DA39204872012000901548007AF3
:104000000390154800784006000E02901048007892
:1040100000EB8000C0B210230190DDE9021201F034
:104020000BF8002000900B48407A03900A48007873
:104030004006000E02900648007800EB8000083031
:10404000C0B210230190DDE9021200F0F5FF4EE04E
:104050000C000020430000200D0000204F00002035
:10406000FE4800780A2842D1FD48807A401EFC496B
:1040700088720846807A302801DA39208872012057
:104080000090F748407A0390F64800784006000E0A
:104090000290F548007800EB80000830C0B2102391
:1040A0000190DDE9021200F0C7FF00200090EC480B
:1040B000807A0390EB4800784006000E0290EA48B0
:1040C000007800EB40004006000E10230190DDE96F
:1040D000021200F0B1FF0AE0E448007A012803D19F
:1040E0000020E249087202E00120E04908723DE246
:1040F000DF480079C8B9DD48807B012808D100205D
:10410000DA4988730222DB49DBA003F067FB2BE26C
:104110000120D6498873D749D8A003F0AFFA01220D
:10412000D449D5A003F05AFB1EE2D14800790128FA
:10413000EDD1CA480078401CC8490870084600788C
:10414000012825D10090C64800780390C548007822
:104150004006000E0290C448007810230190DDE96B
:10416000021200F069FF00200090BD4840780390E3
:10417000BC4800784006000E0290BB48007808302A
:10418000C0B210230190DDE9021200F055FFEBE10F
:10419000B2480078022828D101200090B048407829
:1041A0000390B04800784006000E0290AE480078B8
:1041B0000830C0B210230190DDE9021200F03CFF8C
:1041C00000200090A64880780390A648007840061A
:1041D000000E0290A44800784006000E10230190C3
:1041E000DDE9021200F028FFBEE19C4800780328B8
:1041F0002AD1012000909A4880780390994800784D
:104200004006000E0290984800784006000E1023E9
:104210000190DDE9021200F00FFF002000909048AD
:10422000C07803908F4800784006000E02908E48B8
:104230000078082101EB4000C0B210230190DDE9B5
:10424000021200F0F9FE8FE18448007804282BD197
:10425000012000908248C078039082480078400690
:10426000000E029080480078082101EB4000C0B2A7
:1042700010230190DDE9021200F0DEFE0020009024
:10428000774800790390774800784006000E029046
:104290007548007800EB4000C0B210230190DDE9C2
:1042A000021200F0C9FE5FE16C48007805282BD1AE
:1042B000012000906A48007903906A48007840061F
:1042C000000E02906848007800EB4000C0B2102356
:1042D0000190DDE9021200F0AFFE0020009060487E
:1042E000407903905F4800784006000E02905E48D7
:1042F000007800EB40000830C0B210230190DDE9E7
:10430000021200F099FE2FE15448007806282AD1C5
:1043100001200090524840790390524800784006AE
:10432000000E02905048007800EB40000830C0B208
:1043300010230190DDE9021200F07EFE00200090C3
:10434000474880790390474800784006000E029065
:10435000454800788006000E10230190DDE9021226
:1043600000F06AFE00E13D48007807282AD10120CC
:1043700000903B48807903903A4800784006000E50
:104380000290394800788006000E10230190DDE984
:10439000021200F051FE002000903148C0790390D5
:1043A000304800784006000E02902F48007808211F
:1043B00001EB8000C0B210230190DDE9021200F091
:1043C0003BFED1E02548007808282BD10120009041
:1043D0002348C0790390234800784006000E0290DD
:1043E00021480078082101EB8000C0B21023019021
:1043F000DDE9021200F020FE002000901848007A4B
:104400000390184800784006000E02901648007885
:1044100000EB8000C0B210230190DDE9021200F031
:104420000BFEA1E00D48007809283ED10120009044
:104430000B48007A03900B4800784006000E02906B
:104440000948007800EB8000C0B210230190DDE93C
:10445000021200F0F1FD0020009011E04F0000205A
:10446000430000200D0000200C0000201800002058
:104470004C0100203700002063680000656E0000DA
:104480003B48407A03903B4800784006000E02907B
:104490003948007800EB80000830C0B2102301904A
:1044A000DDE9021200F0C8FD5EE0344800780A2819
:1044B0002CD1012000902E48407A03902D4800789E
:1044C0004006000E02902C48007800EB8000083077
:1044D000C0B210230190DDE9021200F0ADFD002012
:1044E00000902348807A0390224800784006000E0E
:1044F00002902148007800EB40004006000E102397
:104500000190DDE9021200F097FD2DE01B480078D4
:104510000B2829D100201949087000901448007810
:104520000390144800784006000E0290124800786C
:1045300010230190DDE9021200F07EFD01200090C1
:104540000B48807A03900B4800784006000E0290DA
:104550000948007800EB40004006000E102301904F
:10456000DDE9021200F068FD00E000BF00BF1FBDE2
:10457000430000200D0000200C0000204F00002010
:1045800008B50121082000F063FF2020ADF80000ED
:1045900003208DF8020010208DF8030069460448BE
:1045A000FEF714FC20210248FEF7A4FC08BD000021
:1045B000000C01402DE9F05F06460F4690469946F3
:1045C000DDE90AAB3B2000F067F804463C2000F030
:1045D00063F8054645EA042000B230803D2000F033
:1045E0005BF804463E2000F057F8054645EA0420F3
:1045F00000B238803F2000F04FF80446402000F021
:104600004BF8054645EA042000B2A8F80000432014
:1046100000F042F80446442000F03EF8054645EA22
:10462000042000B2A9F80000452000F035F8044647
:10463000462000F031F8054645EA042000B2AAF809
:104640000000472000F028F80446482000F024F835
:10465000054645EA042000B2ABF80000BDE8F09F33
:1046600010B500F0ABF801216B2000F034F8002108
:104670006C2000F030F80921192000F02CF80621F8
:104680001A2000F028F818211B2000F024F8182127
:104690001C2000F020F810BD70B5044600F000F9B1
:1046A000D02000F0E8F800F0B1F8204600F0E3F880
:1046B00000F0ACF800F0F4F8D12000F0DCF800F0E5
:1046C000A5F800F0B2F80546012000F0C8F800F0A7
:1046D000F5F8284670BD70B505460C4600F0E0F8C8
:1046E000D02000F0C8F800F091F8284600F0C3F898
:1046F00000F08CF8204600F0BEF800F087F800F0DB
:10470000DDF870BD7047000038B51C4800780128FE
:1047100032D100201A491B4A128888547B2118483C
:10472000FBF74CFF044604B91BE06A4616A120467D
:1047300002F098F810B11749009808706A4616A15F
:10474000204602F08FF810B11249009848806A465E
:1047500014A1204602F086F810B10E4900980872A4
:1047600000BF4FF4FA710648FBF7A8FF0020054987
:1047700008800249087000BF38BD0000A800002072
:10478000CF080020AA00002053657453756E73692A
:104790006E650000180000205365744469737461ED
:1047A0006E63650048656172744D6561737572650D
:1047B0004B65790010B500F009FA10BD08B501216C
:1047C000042000F045FE14208DF80300C020ADF851
:1047D000000003208DF8020069460448FEF7F6FA4F
:1047E000C0210248FEF788FB08BD00000008014018
:1047F00010B580210448FEF774FB04460A20FEF73A
:104800005BFA204610BD00000008014010B50120F1
:1048100000F06EF8012000F05DF8FFF7E9FF0446B4
:10482000002000F057F8204610BD70B5002501208B
:1048300000F05EF800240EE0012000F04BF8FFF7D6
:10484000D7FF012802D1802020410543002000F03D
:1048500041F8601CC4B2082CEEDB284670BD10B5D0
:104860000446204600F044F8012000F033F8002010
:1048700000F030F810BD70B5054600240DE0802131
:10488000214101EA050000F033F8012000F022F890
:10489000002000F01FF8601CC4B2082CEFDB70BDD4
:1048A00010B5012000F024F8012000F013F80020DA
:1048B00000F01EF8002000F00DF810BD10B500202B
:1048C00000F016F8012000F005F8012000F010F8C3
:1048D00010BD000010B50446224640210348FEF7F3
:1048E0000DFB0A20FEF7E8F910BD000000080140AA
:1048F00010B50446224680210348FEF7FFFA0A203D
:10490000FEF7DAF910BD00000008014010B54FF4C1
:1049100096710348FBF7D2FE00200249088010BDC3
:10492000A3070020A000002010B5FFF7EFFF03E071
:104930004FF4FA70FEF744F953A154A000F016F9B1
:104940000028F5D14FF47A70FEF73AF903E04FF4FE
:10495000FA70FEF735F94CA14EA000F007F90028D7
:10496000F5D103E04FF4FA70FEF72AF946A14BA007
:1049700000F0FCF80028F5D103E04FF4FA70FEF7E0
:104980001FF941A141A000F0F1F80028F5D14FF442
:104990007A70FEF715F94FF47A70FEF711F903E01B
:1049A0004FF4FA70FEF70CF93FA142A000F0DEF8D8
:1049B0000028F5D14FF47A70FEF702F903E04FF4C6
:1049C000FA70FEF7FDF830A13DA000F0CFF8002806
:1049D000F5D14FF47A70FEF7F3F803E04FF47A70F4
:1049E000FEF7EEF828A139A000F0C0F80028F5D1B4
:1049F0004FF47A70FEF7E4F84FF47A70FEF7E0F8BF
:104A00004FF47A70FEF7DCF805E0FFF77FFF4FF414
:104A10007A70FEF7D5F81CA13AA000F0A7F800289C
:104A2000F3D14FF47A70FEF7CBF84FF47A70FEF7BB
:104A3000C7F805E0FFF76AFF4FF47A70FEF7C0F899
:104A400011A13BA000F092F80028F3D14FF47A7046
:104A5000FEF7B6F803E04FF47A70FEF7B1F80AA15A
:104A600038A000F083F80028F5D14FF4FA713C48E3
:104A7000FBF724FE00203B49088001203A490870DA
:104A800000F0FEF810BD00004F4B000041540D0A2D
:104A900000000000415445300D0A000041542B52E3
:104AA000455345540D0A00002B43455245473A20D3
:104AB000302C310041542B43455245473F0D0A00ED
:104AC00041542B4353510D0A0000000041542B4D1B
:104AD000434F4E4649473D7468696E6773636C6F18
:104AE00075642C646E3335323830653575746834CE
:104AF00074656E2C654A344B6A6A735273390D0AB9
:104B00000000000041542B4D495053544152543D34
:104B100073682D332D6D7174742E696F742D6170EF
:104B2000692E636F6D2C313838330D0A0000000098
:104B300041542B4D434F4E4E4543543D302C333062
:104B4000300D0A0041542B4D5355423D617474722F
:104B50006962757465732F707573682C300D0A0067
:104B6000CF080020AA000020AE00002070B5044647
:104B70000D466420124908702046FBF73BFD86B2C3
:104B8000324621460F4801F0A2FA0EE000F0AEF8DE
:104B900040B929460C48FBF71BFD18B1FFF7B6FEDC
:104BA000002070BD1420FEF70BF80548017800784E
:104BB000401E034A10700029E8D10120F1E70000EF
:104BC000AD00002000440040A30700202DE9F04381
:104BD000ADF5557D4FF448710DA8FBF791FD2249C5
:104BE000886903F061FD04460D461F49486903F0DA
:104BF0005BFD06460F461C49486803F055FD80469C
:104C000089461948CDE90867CDE90A45007C16496F
:104C1000897B154A9289144B5B7ACDE90332CDE941
:104C200005101148007ACDE9008902900F48B0F9CB
:104C300000300F480F4902680DA8FBF797FB07E00B
:104C40000D48007800B909E04FF4FA70FDF7B8FF9D
:104C50000AA10DA8FFF78AFF0028F1D100BF0DF5CA
:104C6000557DBDE8F08300001800002008010020F9
:104C7000A400002050A10008340000204F4B000089
:104C800000B5ADF5017D4FF4FA7104A8FBF738FDCE
:104C90001148807B1049097A0F4A5288CDE90021DA
:104CA00002900D4803780D480D49026804A8FBF7EF
:104CB0005DFB07E00B48007800B909E04FF4FA709B
:104CC000FDF77EFF08A104A8FFF750FF0028F1D1EF
:104CD00000BF0DF5017D00BD18000020A4000020DC
:104CE000BCA00008340000204F4B00000A48008898
:104CF00008B9012070470848008808490988884297
:104D000003D1002004490880F4E7034800880349E0
:104D100008800120EEE70000A0000020A200002093
:104D20007047000070B5002100230F22C47804B33F
:104D3000154C246804F4E064C4F5E064210AC1F170
:104D40000403CA40447804FA03F1847814402143F0
:104D500009010E4C0678A155047804F01F050124C2
:104D6000AC4005786D11AD0005F1E025C5F80041B6
:104D700009E0047804F01F050124AC40044D0678D6
:104D8000761145F8264070BD0CED00E000E400E02F
:104D900080E100E002490143024A116070470000CF
:104DA0000000FA050CED00E070B500240CE00025D1
:104DB00006E00020074901EBC5010855681CC5B293
:104DC000802DF6DB601CC4B2082CF0DB00F000F98B
:104DD00070BD00002303002010B504461CB900215B
:104DE000A62000F0B4FA012C03D10021A72000F086
:104DF000AEFA10BD10B504463CB90021C82000F041
:104E0000A6FA0021A12000F0A2FA012C07D100216E
:104E1000C02000F09CFA0021A02000F098FA10BDFC
:104E2000F0B514460B46CF1701EB5777C7F3C7020F
:104E3000CF1701EB5777FF10A1EBC707FEB2012395
:104E4000B340DDB24CB1134B03EBC0039B5C2B436F
:104E5000104F07EBC007BB541AE00E4B03EBC00327
:104E60009B5CDB430B4F07EBC007BB54094B03EBC9
:104E7000C0039B5C2B43074F07EBC007BB54054B9C
:104E800003EBC0039B5CDB43024F07EBC007BB5443
:104E9000F0BD00002303002008B50121082000F028
:104EA000D7FA0121082000F0D3FAC020ADF80000A5
:104EB00014208DF8030003208DF8020069463D4858
:104EC000FDF784FF69463B48FDF780FF40213948E4
:104ED000FEF712F880213748FEF70EF80021AE20C9
:104EE00000F035FA0021084600F031FA00211020C8
:104EF00000F02DFA0021402000F029FA0021812045
:104F000000F025FA0021CF2000F021FA0021A12095
:104F100000F01DFA0021C82000F019FA0021A62097
:104F200000F015FA0021A82000F011FA00213F201E
:104F300000F00DFA0021D32000F009FA0021084604
:104F400000F005FA0021D52000F001FA00218020B0
:104F500000F0FDF90021D92000F0F9F90021F1203D
:104F600000F0F5F90021DA2000F0F1F9002112201B
:104F700000F0EDF90021DB2000F0E9F900213020FC
:104F800000F0E5F90021202000F0E1F900210220E5
:104F900000F0DDF900218D2000F0D9F90021142066
:104FA00000F0D5F9FFF700FF0021AF2000F0CFF9A6
:104FB00008BD0000000C014010B50246012000E0D1
:104FC00050430B1EA1F10104E1B2F9D110BD000064
:104FD00070B500242BE004F1B001C8B2002100F04C
:104FE000B6F90021084600F0B2F90021102000F0C7
:104FF000AEF9FDF7DBFF782000F098FBFEF702F832
:10500000402000F093FBFDF7FDFF002509E0094972
:1050100001EBC501085D00F089FBFDF7F3FF681C9B
:10502000C5B2802DF3DBFDF7DBFF601CC4B2082C9A
:10503000D1DB70BD230300202DE9FE4F07468846D3
:1050400092461C460197CDF80080082C02D14FF003
:1050500006091FE02046E31704EB5373DB102146DB
:105060004FEAE47C04EB5C7C4FEAEC0CA4EBCC0C48
:10507000BCF1000F02D04FF0010C01E04FF0000C2A
:105080006344224604EBD27C4FEA6C0C03FB0CF326
:1050900003F0FF09AAF12000C6B200255EE0082C4B
:1050A00007D106EB46002F4901EB400010F805B090
:1050B0001DE00C2C07D106EB46002B4901EB8000CC
:1050C00010F805B013E0102C05D1284800EB0610AD
:1050D00010F805B00BE0182C07D106EBC6002449E8
:1050E00001EB800010F805B001E0BDE8FE8F002064
:1050F00002901CE00BF0010028B1414638460C9AA2
:10510000FFF78EFE09E00C9808B9012000E00020AE
:10511000024641463846FFF783FE4FEA6B0B08F123
:10512000010000F0FF080298401CC0B202900298F3
:105130000828DFDB781CC7B2082C0BD004EBD47135
:105140004A100199791A8A4204D1019F00980830C7
:10515000C0B20090DDF80080681CC5B24D459EDBF2
:1051600000BFC2E7EC8E0008149100088895000883
:10517000789B00082DE9FC4F0746884616461C46DA
:10518000BB46CDF804802046E21704EB5272D210E1
:105190002146E31704EB5373DB10A4EBC3030BB1FD
:1051A000012300E000231A44624392B200920025DA
:1051B00055E0102C05D12C4800EB461010F805A046
:1051C0001BE0182C07D106EBC600284901EBC000F4
:1051D00010F805A011E0202C05D1254800EBC610E1
:1051E00010F805A009E0402C05D1224800EB46202C
:1051F00010F805A001E0BDE8FC8F4FF000091CE0AD
:105200000AF0010028B1414638460B9AFFF708FE24
:1052100009E00B9808B9012000E000200246414651
:105220003846FFF7FDFD4FEA6A0A08F1010000F079
:10523000FF0809F1010000F0FF09B9F1080FDFDBF9
:10524000781CC7B2A7EB0B00A04204D15F460198BF
:105250000830C0B20190DDF80480681C85B2009867
:105260008542A6DB00BFC6E79C9B00081C9D00088A
:10527000649D0008E49D00082DE9FF4F82B00646BA
:1052800091461F46DDE90F4A4FF0000B082C01D173
:105290004FF0020B002530E0781B401EC1B20A20FF
:1052A000FFF78AFEB9FBF0F00A21B0FBF1F201FB37
:1052B0001208B8F1000F0ED104EBD4710BEB6101B1
:1052C00001FB0561C8B223463022CDE900A4039951
:1052D000FFF7B2FE0FE004EBD4710BEB610101FBB1
:1052E0000561C8B208F13001CAB22346CDE900A475
:1052F0000399FFF7A1FE681CC5B2BD42CCDB06B026
:10530000BDE8F08F2DE9F84106460F4614461D46CC
:10531000DDF81C8013E0CDF8008022782B4639465A
:105320003046FFF789FE082D02D1B01DC6B205E058
:10533000284605EBD07106EB6101CEB2641C2078E3
:10534000202802DB20787E28E5DDBDE8F88170B5F5
:1053500005460C46FDF72AFE782000F0E7F9FDF738
:1053600051FE1CB1402000F0E1F902E0002000F005
:10537000DDF9FDF747FE284600F0D8F9FDF742FEBB
:10538000FDF72EFE70BD10B501F048F910BD704755
:10539000002009490870094908600949086009495D
:1053A0000860094908600949086008200849087030
:1053B0000020084908607047D8000020DC00002069
:1053C000E0000020E4000020E8000020EC000020C5
:1053D000F0000020D400002001460020034A50685D
:1053E00020F4404008435060704700000010024025
:1053F00029B1064A52690243044B5A6104E0034A48
:1054000052698243014B5A6170470000001002400C
:1054100029B1064AD2690243044BDA6104E0034A27
:10542000D2698243014BDA617047000000100240EC
:1054300029B1064A12690243044B1A6104E0034A87
:1054400012698243014B1A6170470000001002404C
:1054500029B1064A92690243044B9A6104E0034A67
:1054600092698243014B9A6170470000001002402C
:1054700029B1064AD2680243044BDA6004E0034AC9
:10548000D2688243014BDA6070470000001002408E
:1054900030B500210022002400232D4D6D6805F059
:1054A0000C0121B1042905D0082923D105E0294D9B
:1054B000056022E0274D05601FE0254D6D6805F46D
:1054C0007012234D6D6805F48034022505EB92427D
:1054D0001CB9214D554305600BE01D4D6D6805F469
:1054E00000351DB11C4D5543056002E0194D554373
:1054F000056002E0174D056000BF00BF144D6D68E8
:1055000005F0F0010909154D6B5C0568DD4045604B
:105510000F4D6D6805F4E061090A104D6B5C45683C
:10552000DD4085600A4D6D6805F46051C90A0B4D78
:105530006B5C4568DD40C560054D6D6805F4404114
:10554000890B074D6B5CC568B5FBF3F5056130BD94
:105550000010024000127A0000093D008000002087
:105560009000002070B50446FDF73CFEAE20FDF72C
:105570000BFEFDF77FFE00B117E02046FDF704FEAD
:10558000FDF778FE00B110E0FDF72CFEAF20FDF72F
:10559000FBFDFDF76FFE00B107E00020FDF7BEFD4B
:1055A0000546FDF743FE284670BDFDF73FFE00208F
:1055B000FAE7000000200E49896801F4004109B9AA
:1055C00040F001000B49096801F0010109B940F000
:1055D00002000749896801F4005109B940F0080048
:1055E0000349896801F4804109B940F0040070471B
:1055F00000100140080801402DE9F04F8BB004462F
:10560000894692462146204603F07AFA05463D48EF
:105610000168284603F074F83A490860494648464C
:1056200003F06EFA054638480168284603F068F82A
:105630003549086035480068401C34490860BAF1B3
:10564000000F5BD032480078401C31490870084692
:105650000078032852D12D48006803F009FA8046EB
:1056600041462848006803F0B9F8074603F01CF8E3
:10567000054601F0F3F9CDE904012448006803F080
:10568000F7F9014601902048006803F0A7F8834627
:1056900003F00AF8074601F0E1F9054600221D4B28
:1056A00002F0D8FDCDE90201DDE9042302F0A8FBF8
:1056B000CDE9060102F0B6FA0990002008901649DB
:1056C000099803F0E9FA06D2099803F099F94238EB
:1056D000C0B208900AE01149099803F0DDFA05D23A
:1056E000099803F08DF93238C0B2089001F068FFD4
:1056F0000B490898085C0B49087000BF0BB0BDE867
:10570000F08F0000380100203C01002044010020FF
:10571000400100200000594000008442000048423F
:105720000C010020480100207047000070B50446BD
:1057300000251BE004F0800020B180210D48FDF71A
:10574000DBFB03E080210B48FDF7D4FBFDF7C4FD34
:1057500040210848FDF7D0FBFDF7BEFD402105487C
:10576000FDF7C8FB6006040E681CC5B2082DE1DB1E
:1057700070BD0000000C014010B500F001F810BD34
:105780000CB50020019000903348006840F4803050
:105790003149086000BF3048006800F400300090D4
:1057A0000198401C0190009818B90198B0F5A06FBD
:1057B000F1D12948006800F4003010B101200090B8
:1057C00001E0002000900098012843D123480068A0
:1057D00040F01000214908600846006820F00300EE
:1057E00008600846006840F0020008601A484068F7
:1057F000194948600846406848600846406840F4D7
:10580000806048600846406820F47C104860084684
:10581000406840F4E81048600846006840F0807036
:10582000086000BF0C48006800F000700028F9D044
:105830000948406820F0030007494860084640686E
:1058400040F00200486000BF0348406800F00C00D0
:105850000828F9D10CBD00000010024000200240D1
:10586000042808D14FF0E021096941F004014FF00C
:10587000E022116107E04FF0E021096921F0040105
:105880004FF0E022116170477047000010B51348D7
:10589000006840F00100114908600846406810495E
:1058A00008400E494860084600680E4908400B4908
:1058B00008600846006820F48020086008464068B8
:1058C00020F4FE0048604FF41F008860FFF754FF8B
:1058D0004FF000600449086010BD00000010024055
:1058E0000000FFF8FFFFF6FE08ED00E01FB54FF4E3
:1058F000A060FFF74FFA01210220FFF789FD17484A
:1059000000F08CF80920ADF808004720ADF804003D
:105910000020ADF80600ADF80A0001A90F4800F01C
:105920008BF901210D4800F069F8012211460B485E
:1059300000F079F90121094800F063F81D208DF885
:10594000000001208DF8010000208DF802000120E8
:105950008DF803006846FFF7E5F91FBD000400401D
:1059600010B501211D4800F04DF9002834D01C4825
:105970000088401C1A4908800846008864281EDDFB
:10598000002008801748C088401C1649C880084677
:105990000089401C088114480068401C12490860B6
:1059A00012480088401C1149088011480088401C9A
:1059B0000F4908800F480068401C0E4908600E48D7
:1059C000D0E900305A1C40F100000B49C1E9002029
:1059D0000121024800F012F810BD00000004004050
:1059E0005C000020560100205800002054000020D8
:1059F000560000205000002070000020CA430282A0
:105A0000704721B1028842F00102028004E002885E
:105A10004FF6FE731A4002807047000010B504462E
:105A20006848844208D10121C014FFF721FD0021FC
:105A3000E014FFF71DFDC4E0B4F1804F08D101214F
:105A40000846FFF7F5FC00210120FFF7F1FCB8E064
:105A50005D48844208D101210220FFF7E9FC0021C2
:105A60000220FFF7E5FCACE05848844208D1012150
:105A70000420FFF7DDFC00210420FFF7D9FCA0E0A3
:105A80005348844208D101210820FFF7D1FC0021AE
:105A90000820FFF7CDFC94E04E48844208D1012154
:105AA0001020FFF7C5FC00211020FFF7C1FC88E0A3
:105AB0004948844208D101212020FFF7B9FC002188
:105AC0002020FFF7B5FC7CE04448844208D1012146
:105AD0004014FFF7CDFC00216014FFF7C9FC70E013
